{
  "contractName": "Project",
  "abi": [
    {
      "inputs": [
        {
          "internalType": "address",
          "name": "_creator",
          "type": "address"
        },
        {
          "internalType": "string",
          "name": "_name",
          "type": "string"
        },
        {
          "internalType": "uint256",
          "name": "_minimalContribution",
          "type": "uint256"
        }
      ],
      "stateMutability": "nonpayable",
      "type": "constructor"
    },
    {
      "anonymous": false,
      "inputs": [],
      "name": "DoerGetPaid",
      "type": "event"
    },
    {
      "anonymous": false,
      "inputs": [
        {
          "indexed": false,
          "internalType": "uint256",
          "name": "taskNumber",
          "type": "uint256"
        },
        {
          "indexed": false,
          "internalType": "string",
          "name": "title",
          "type": "string"
        },
        {
          "indexed": false,
          "internalType": "uint256",
          "name": "reward",
          "type": "uint256"
        }
      ],
      "name": "NewTaskCreated",
      "type": "event"
    },
    {
      "anonymous": false,
      "inputs": [
        {
          "indexed": false,
          "internalType": "address",
          "name": "sender",
          "type": "address"
        },
        {
          "indexed": false,
          "internalType": "uint256",
          "name": "amount",
          "type": "uint256"
        }
      ],
      "name": "Received",
      "type": "event"
    },
    {
      "anonymous": false,
      "inputs": [
        {
          "indexed": false,
          "internalType": "uint256",
          "name": "taskNumber",
          "type": "uint256"
        },
        {
          "indexed": false,
          "internalType": "string",
          "name": "title",
          "type": "string"
        },
        {
          "indexed": false,
          "internalType": "uint256",
          "name": "reward",
          "type": "uint256"
        }
      ],
      "name": "TaskApproved",
      "type": "event"
    },
    {
      "anonymous": false,
      "inputs": [
        {
          "indexed": false,
          "internalType": "uint256",
          "name": "taskNumber",
          "type": "uint256"
        },
        {
          "indexed": false,
          "internalType": "string",
          "name": "title",
          "type": "string"
        },
        {
          "indexed": false,
          "internalType": "address",
          "name": "doer",
          "type": "address"
        }
      ],
      "name": "TaskCompleted",
      "type": "event"
    },
    {
      "anonymous": false,
      "inputs": [
        {
          "indexed": false,
          "internalType": "uint256",
          "name": "taskNumber",
          "type": "uint256"
        },
        {
          "indexed": false,
          "internalType": "string",
          "name": "title",
          "type": "string"
        },
        {
          "indexed": false,
          "internalType": "address",
          "name": "doer",
          "type": "address"
        }
      ],
      "name": "TaskTaken",
      "type": "event"
    },
    {
      "inputs": [],
      "name": "name",
      "outputs": [
        {
          "internalType": "string",
          "name": "",
          "type": "string"
        }
      ],
      "stateMutability": "view",
      "type": "function"
    },
    {
      "inputs": [
        {
          "internalType": "address",
          "name": "",
          "type": "address"
        }
      ],
      "name": "participants",
      "outputs": [
        {
          "internalType": "bool",
          "name": "",
          "type": "bool"
        }
      ],
      "stateMutability": "view",
      "type": "function"
    },
    {
      "inputs": [
        {
          "internalType": "uint256",
          "name": "",
          "type": "uint256"
        }
      ],
      "name": "tasks",
      "outputs": [
        {
          "internalType": "uint256",
          "name": "number",
          "type": "uint256"
        },
        {
          "internalType": "string",
          "name": "title",
          "type": "string"
        },
        {
          "internalType": "string",
          "name": "description",
          "type": "string"
        },
        {
          "internalType": "uint256",
          "name": "reward",
          "type": "uint256"
        },
        {
          "internalType": "address payable",
          "name": "doer",
          "type": "address"
        },
        {
          "internalType": "enum Project.TaskStatus",
          "name": "status",
          "type": "uint8"
        },
        {
          "internalType": "uint256",
          "name": "startApprovalCount",
          "type": "uint256"
        },
        {
          "internalType": "uint256",
          "name": "rewardApprovalCount",
          "type": "uint256"
        },
        {
          "internalType": "bool",
          "name": "exist",
          "type": "bool"
        }
      ],
      "stateMutability": "view",
      "type": "function"
    },
    {
      "stateMutability": "payable",
      "type": "receive"
    },
    {
      "inputs": [],
      "name": "joinProject",
      "outputs": [],
      "stateMutability": "payable",
      "type": "function"
    },
    {
      "inputs": [
        {
          "internalType": "string",
          "name": "title",
          "type": "string"
        },
        {
          "internalType": "string",
          "name": "description",
          "type": "string"
        },
        {
          "internalType": "uint256",
          "name": "reward",
          "type": "uint256"
        }
      ],
      "name": "createTask",
      "outputs": [],
      "stateMutability": "nonpayable",
      "type": "function"
    },
    {
      "inputs": [
        {
          "internalType": "uint256",
          "name": "taskNumber",
          "type": "uint256"
        }
      ],
      "name": "approveTaskStart",
      "outputs": [],
      "stateMutability": "nonpayable",
      "type": "function"
    },
    {
      "inputs": [
        {
          "internalType": "uint256",
          "name": "taskNumber",
          "type": "uint256"
        }
      ],
      "name": "approveTaskCompleted",
      "outputs": [],
      "stateMutability": "nonpayable",
      "type": "function"
    },
    {
      "inputs": [
        {
          "internalType": "uint256",
          "name": "taskNumber",
          "type": "uint256"
        }
      ],
      "name": "doerTakeTask",
      "outputs": [],
      "stateMutability": "nonpayable",
      "type": "function"
    },
    {
      "inputs": [],
      "name": "getProjectsMetrics",
      "outputs": [
        {
          "internalType": "string",
          "name": "projectName",
          "type": "string"
        },
        {
          "internalType": "uint256",
          "name": "totalTasks",
          "type": "uint256"
        },
        {
          "internalType": "uint256",
          "name": "totalParticipants",
          "type": "uint256"
        },
        {
          "internalType": "uint256",
          "name": "contractBalance",
          "type": "uint256"
        },
        {
          "internalType": "address",
          "name": "projectCreator",
          "type": "address"
        }
      ],
      "stateMutability": "view",
      "type": "function"
    },
    {
      "inputs": [
        {
          "internalType": "address",
          "name": "user",
          "type": "address"
        }
      ],
      "name": "isParticipant",
      "outputs": [
        {
          "internalType": "bool",
          "name": "",
          "type": "bool"
        }
      ],
      "stateMutability": "view",
      "type": "function"
    },
    {
      "inputs": [],
      "name": "getActiveTasksCount",
      "outputs": [
        {
          "internalType": "uint256",
          "name": "waiting",
          "type": "uint256"
        },
        {
          "internalType": "uint256",
          "name": "onTheWay",
          "type": "uint256"
        },
        {
          "internalType": "uint256",
          "name": "doing",
          "type": "uint256"
        },
        {
          "internalType": "uint256",
          "name": "completed",
          "type": "uint256"
        }
      ],
      "stateMutability": "view",
      "type": "function"
    },
    {
      "inputs": [
        {
          "internalType": "uint256",
          "name": "taskNumber",
          "type": "uint256"
        }
      ],
      "name": "getTaskDetails",
      "outputs": [
        {
          "internalType": "string",
          "name": "title",
          "type": "string"
        },
        {
          "internalType": "string",
          "name": "description",
          "type": "string"
        },
        {
          "internalType": "uint256",
          "name": "reward",
          "type": "uint256"
        },
        {
          "internalType": "address",
          "name": "doer",
          "type": "address"
        },
        {
          "internalType": "enum Project.TaskStatus",
          "name": "status",
          "type": "uint8"
        },
        {
          "internalType": "uint256",
          "name": "startApprovals",
          "type": "uint256"
        },
        {
          "internalType": "uint256",
          "name": "rewardApprovals",
          "type": "uint256"
        },
        {
          "internalType": "bool",
          "name": "needsMoreApprovals",
          "type": "bool"
        }
      ],
      "stateMutability": "view",
      "type": "function"
    }
  ],
  "bytecode": "0x60806040525f60045560016005555f6006555f6007555f6008555f600955348015610028575f5ffd5b50604051611bd3380380611bd3833981016040819052610047916100b1565b60015f819055600280546001600160a01b0319166001600160a01b038616179055610072838261020f565b50600355506001600160a01b03165f908152600a60205260409020805460ff191660011790556102c9565b634e487b7160e01b5f52604160045260245ffd5b5f5f5f606084860312156100c3575f5ffd5b83516001600160a01b03811681146100d9575f5ffd5b60208501519093506001600160401b038111156100f4575f5ffd5b8401601f81018613610104575f5ffd5b80516001600160401b0381111561011d5761011d61009d565b604051601f8201601f19908116603f011681016001600160401b038111828210171561014b5761014b61009d565b604052818152828201602001881015610162575f5ffd5b8160208401602083015e5f91810160200191909152604095909501519396949550929392505050565b600181811c9082168061019f57607f821691505b6020821081036101bd57634e487b7160e01b5f52602260045260245ffd5b50919050565b601f82111561020a57805f5260205f20601f840160051c810160208510156101e85750805b601f840160051c820191505b81811015610207575f81556001016101f4565b50505b505050565b81516001600160401b038111156102285761022861009d565b61023c81610236845461018b565b846101c3565b6020601f82116001811461026e575f83156102575750848201515b5f19600385901b1c1916600184901b178455610207565b5f84815260208120601f198516915b8281101561029d578785015182556020948501946001909201910161027d565b50848210156102ba57868401515f19600387901b60f8161c191681555b50505050600190811b01905550565b6118fd806102d65f395ff3fe6080604052600436106100a8575f3560e01c806372d9b90b1161006257806372d9b90b146101ce5780638d977672146101ed578063929066f514610221578063a6b7bdd314610240578063c8481e9d14610274578063efeab2d214610299575f5ffd5b806306fdde03146100eb57806309e69ede146101155780630aac425e14610153578063132972c4146101745780633888b9d51461017c57806341a4e30a146101af575f5ffd5b366100e757604080513381523460208201527f88a5966d370b9919b20f3e2c13ff65706f196a4e32cc2c12bf57088f88525874910160405180910390a1005b5f5ffd5b3480156100f6575f5ffd5b506100ff6102b8565b60405161010c9190611374565b60405180910390f35b348015610120575f5ffd5b5061014361012f36600461138d565b600a6020525f908152604090205460ff1681565b604051901515815260200161010c565b34801561015e575f5ffd5b5061017261016d3660046113b3565b610344565b005b6101726104e4565b348015610187575f5ffd5b5061019b6101963660046113b3565b6105e4565b60405161010c9897969594939291906113fe565b3480156101ba575f5ffd5b506101726101c93660046114b1565b61082f565b3480156101d9575f5ffd5b506101726101e83660046113b3565b610a10565b3480156101f8575f5ffd5b5061020c6102073660046113b3565b610e1c565b60405161010c99989796959493929190611524565b34801561022c575f5ffd5b5061014361023b36600461138d565b610f82565b34801561024b575f5ffd5b50610254610fbb565b60408051948552602085019390935291830152606082015260800161010c565b34801561027f575f5ffd5b50610288611102565b60405161010c95949392919061159a565b3480156102a4575f5ffd5b506101726102b33660046113b3565b6111c1565b600180546102c5906115d9565b80601f01602080910402602001604051908101604052809291908181526020018280546102f1906115d9565b801561033c5780601f106103135761010080835404028352916020019161033c565b820191905f5260205f20905b81548152906001019060200180831161031f57829003601f168201915b505050505081565b5f818152600b6020526040902060090154819060ff1661037f5760405162461bcd60e51b815260040161037690611611565b60405180910390fd5b5f828152600b6020526040902060016004820154600160a01b900460ff1660038111156103ae576103ae6113ca565b1461040f5760405162461bcd60e51b815260206004820152602b60248201527f546f2062652074616b656e2061207461736b207265717569726564204f6e546860448201526a655761792073746174757360a81b6064820152608401610376565b60048101546001600160a01b0316156104745760405162461bcd60e51b815260206004820152602160248201527f5461736b20616c726561647920686173206120646f65722061737369676e65646044820152601760f91b6064820152608401610376565b6004810180546001600160a81b0319163360ff60a01b191617600160a11b179081905581546040517f66982d437a3b39fc871b950d1a716529b5cce83f6c9975c666ec48e2725d2ac0926104d7929160018601916001600160a01b0316906116c7565b60405180910390a1505050565b6002546001600160a01b0316330361053e5760405162461bcd60e51b815260206004820152601f60248201527f43726561746f722063616e2774206a6f696e207468652070726f6a6563742e006044820152606401610376565b6003543410156105b65760405162461bcd60e51b815260206004820152603b60248201527f596f757220636f6e747269627574696f6e20697320746f206c6f7720746f207060448201527f6172746963697061746520746f20746869732070726f6a6563742e00000000006064820152608401610376565b335f908152600a60205260408120805460ff1916600117905560058054916105dd836116f7565b9190505550565b5f818152600b6020526040812060090154606091829181908190819081908190899060ff166106255760405162461bcd60e51b815260040161037690611611565b5f8a8152600b6020526040812090806004830154600160a01b900460ff166003811115610654576106546113ca565b1480156106735750600260055461066b919061171b565b826005015411155b806106ba575060026004830154600160a01b900460ff16600381111561069b5761069b6113ca565b1480156106ba575060026005546106b2919061171b565b826006015411155b905081600101826002018360030154846004015f9054906101000a90046001600160a01b03168560040160149054906101000a900460ff168660050154876006015487878054610709906115d9565b80601f0160208091040260200160405190810160405280929190818152602001828054610735906115d9565b80156107805780601f1061075757610100808354040283529160200191610780565b820191905f5260205f20905b81548152906001019060200180831161076357829003601f168201915b50505050509750868054610793906115d9565b80601f01602080910402602001604051908101604052809291908181526020018280546107bf906115d9565b801561080a5780601f106107e15761010080835404028352916020019161080a565b820191905f5260205f20905b8154815290600101906020018083116107ed57829003601f168201915b505050505096509a509a509a509a509a509a509a509a50505050919395975091939597565b335f908152600a602052604090205460ff1661085d5760405162461bcd60e51b81526004016103769061173a565b60208411156108ae5760405162461bcd60e51b815260206004820152601d60248201527f5469746c6520746f6f206c6f6e672e202833322063686172206d6178290000006044820152606401610376565b8047101561090e5760405162461bcd60e51b815260206004820152602760248201527f4e6f7420656e6f7567682062616c616e636520746f206372656174652074686960448201526639903a30b9b59760c91b6064820152608401610376565b805f036109525760405162461bcd60e51b81526020600482015260126024820152712932bbb0b9321031b0b713ba10313290181760711b6044820152606401610376565b600480545f818152600b60205260408120929061096e836116f7565b909155508155600181016109838688836117e5565b50600281016109938486836117e5565b50600381018290555f60068201819055600582015560048101805460ff60a01b1916905560098101805460ff1916600190811790915581546040517fee4db83c1a22fd980d83991543b750a994bb7a85f92fad3d99f99f0466e7e70992610a00929190850190869061189f565b60405180910390a1505050505050565b335f908152600a602052604090205460ff16610a3e5760405162461bcd60e51b81526004016103769061173a565b5f818152600b6020526040902060090154819060ff16610a705760405162461bcd60e51b815260040161037690611611565b5f828152600b60205260408120839190335f90815260088201602052604090205460ff1615610ae15760405162461bcd60e51b815260206004820152601f60248201527f5573657220616c726561647920617070726f76652074686973207461736b2e006044820152606401610376565b60025f5403610b325760405162461bcd60e51b815260206004820152601f60248201527f5265656e7472616e637947756172643a207265656e7472616e742063616c6c006044820152606401610376565b60025f818155868152600b60205260409020906004820154600160a01b900460ff166003811115610b6557610b656113ca565b14610bc85760405162461bcd60e51b815260206004820152602d60248201527f5461736b206d75737420626520696e20446f696e672073746174757320746f2060448201526c31329031b7b6b83632ba32b21760991b6064820152608401610376565b60048101546001600160a01b0316610c225760405162461bcd60e51b815260206004820152601e60248201527f4e6f20646f65722061737369676e656420746f2074686973207461736b2e00006044820152606401610376565b8060030154471015610c8b5760405162461bcd60e51b815260206004820152602c60248201527f496e73756666696369656e7420636f6e74726163742062616c616e636520746f60448201526b103830bc903932bbb0b9321760a11b6064820152608401610376565b600681018054905f610c9c836116f7565b9091555050335f9081526008820160205260409020805460ff19166001179055600554610ccb9060029061171b565b81600601541115610e1057600481018054600360a01b60ff60a01b198216179091556003820180545f909155825460405191927fa6001061600402ec4227f5465fb7b00b4e49c2722e6e68f933f5a62aa06510cd92610d3b929160018701916001600160a01b03909116906116c7565b60405180910390a160048201546040515f916001600160a01b03169083908381818185875af1925050503d805f8114610d8f576040519150601f19603f3d011682016040523d82523d5f602084013e610d94565b606091505b5050905080610de55760405162461bcd60e51b815260206004820152601760248201527f526577617264207472616e73666572206661696c65642e0000000000000000006044820152606401610376565b6040517f0f8066c4942ed750b1c6c5fdb256da3222f80b32f3252023ff8c92c72361b3ec905f90a150505b505060015f5550505050565b600b6020525f908152604090208054600182018054919291610e3d906115d9565b80601f0160208091040260200160405190810160405280929190818152602001828054610e69906115d9565b8015610eb45780601f10610e8b57610100808354040283529160200191610eb4565b820191905f5260205f20905b815481529060010190602001808311610e9757829003601f168201915b505050505090806002018054610ec9906115d9565b80601f0160208091040260200160405190810160405280929190818152602001828054610ef5906115d9565b8015610f405780601f10610f1757610100808354040283529160200191610f40565b820191905f5260205f20905b815481529060010190602001808311610f2357829003601f168201915b5050506003840154600485015460058601546006870154600990970154959692956001600160a01b038316955060ff600160a01b909304831694509092911689565b6001600160a01b0381165f908152600a602052604081205460ff1680610fb557506002546001600160a01b038381169116145b92915050565b5f808080805b6004548110156110fb575f818152600b602052604090206009015460ff16156110f3575f5f828152600b6020526040902060040154600160a01b900460ff166003811115611011576110116113ca565b036110285784611020816116f7565b9550506110f3565b60015f828152600b6020526040902060040154600160a01b900460ff166003811115611056576110566113ca565b0361106d5783611065816116f7565b9450506110f3565b60025f828152600b6020526040902060040154600160a01b900460ff16600381111561109b5761109b6113ca565b036110b257826110aa816116f7565b9350506110f3565b60035f828152600b6020526040902060040154600160a01b900460ff1660038111156110e0576110e06113ca565b036110f357816110ef816116f7565b9250505b600101610fc1565b5090919293565b60605f5f5f5f60016004546005544760025f9054906101000a90046001600160a01b0316848054611132906115d9565b80601f016020809104026020016040519081016040528092919081815260200182805461115e906115d9565b80156111a95780601f10611180576101008083540402835291602001916111a9565b820191905f5260205f20905b81548152906001019060200180831161118c57829003601f168201915b50505050509450945094509450945094509091929394565b335f908152600a602052604090205460ff166111ef5760405162461bcd60e51b81526004016103769061173a565b5f818152600b6020526040902060090154819060ff166112215760405162461bcd60e51b815260040161037690611611565b5f828152600b602052604090208290600190335f90815260078201602052604090205460ff16156112945760405162461bcd60e51b815260206004820152601f60248201527f5573657220616c726561647920617070726f76652074686973207461736b2e006044820152606401610376565b5f858152600b6020526040812060058101805491926112b2836116f7565b9091555050335f9081526007820160205260409020805460ff191660011790556005546112e19060029061171b565b8160050154111561133e5760048101805460ff60a01b1916600160a01b179055805460038201546040517fcbb58d28dd23d4aad9826add8828cf4d6ff44268d6be366842d943be8d06db2c92610a0092909160018601919061189f565b505050505050565b5f81518084528060208401602086015e5f602082860101526020601f19601f83011685010191505092915050565b602081525f6113866020830184611346565b9392505050565b5f6020828403121561139d575f5ffd5b81356001600160a01b0381168114611386575f5ffd5b5f602082840312156113c3575f5ffd5b5035919050565b634e487b7160e01b5f52602160045260245ffd5b600481106113fa57634e487b7160e01b5f52602160045260245ffd5b9052565b61010081525f61141261010083018b611346565b8281036020840152611424818b611346565b604084018a90526001600160a01b0389166060850152915061144b905060808301876113de565b8460a08301528360c083015282151560e08301529998505050505050505050565b5f5f83601f84011261147c575f5ffd5b50813567ffffffffffffffff811115611493575f5ffd5b6020830191508360208285010111156114aa575f5ffd5b9250929050565b5f5f5f5f5f606086880312156114c5575f5ffd5b853567ffffffffffffffff8111156114db575f5ffd5b6114e78882890161146c565b909650945050602086013567ffffffffffffffff811115611506575f5ffd5b6115128882890161146c565b96999598509660400135949350505050565b89815261012060208201525f61153e61012083018b611346565b8281036040840152611550818b611346565b606084018a90526001600160a01b03891660808501529150611577905060a08301876113de565b8460c08301528360e08301528215156101008301529a9950505050505050505050565b60a081525f6115ac60a0830188611346565b602083019690965250604081019390935260608301919091526001600160a01b0316608090910152919050565b600181811c908216806115ed57607f821691505b60208210810361160b57634e487b7160e01b5f52602260045260245ffd5b50919050565b6020808252601e908201527f5468652061736b696e67207461736b20646f65736e27742065786973742e0000604082015260600190565b5f8154611654816115d9565b80855260018216801561166e576001811461168a576116be565b60ff1983166020870152602082151560051b87010193506116be565b845f5260205f205f5b838110156116b55781546020828a010152600182019150602081019050611693565b87016020019450505b50505092915050565b838152606060208201525f6116df6060830185611648565b905060018060a01b0383166040830152949350505050565b5f6001820161171457634e487b7160e01b5f52601160045260245ffd5b5060010190565b5f8261173557634e487b7160e01b5f52601260045260245ffd5b500490565b6020808252602b908201527f596f7520617265206e6f742061207061727469636970616e7473206f6620746860408201526a34b990383937b532b1ba1760a91b606082015260800190565b634e487b7160e01b5f52604160045260245ffd5b601f8211156117e057805f5260205f20601f840160051c810160208510156117be5750805b601f840160051c820191505b818110156117dd575f81556001016117ca565b50505b505050565b67ffffffffffffffff8311156117fd576117fd611785565b6118118361180b83546115d9565b83611799565b5f601f841160018114611842575f851561182b5750838201355b5f19600387901b1c1916600186901b1783556117dd565b5f83815260208120601f198716915b828110156118715786850135825560209485019460019092019101611851565b508682101561188d575f1960f88860031b161c19848701351681555b505060018560011b0183555050505050565b838152606060208201525f6118b76060830185611648565b905082604083015294935050505056fea26469706673582212203d21f573569e8dbb319a61fb0a60b2ff5ea798c256c8eb5620870b9193e7970664736f6c634300081e0033",
  "immutableReferences": {},
  "source": "// SPDX-License-Identifier: MIT\r\npragma solidity 0.8.30;\r\n\r\nimport \"./ReentrancyGuard.sol\";\r\n\r\n\r\ncontract Project is ReentrancyGuard {\r\n    enum TaskStatus { WaitingApproval, OnTheWay, Doing, Completed }\r\n\r\n    struct Task {\r\n        uint256 number;\r\n        string title;\r\n        string description;\r\n        uint256 reward;\r\n        address payable doer;\r\n        TaskStatus status;\r\n        uint256 startApprovalCount;\r\n        uint256 rewardApprovalCount;\r\n        mapping(address => bool) hasApprovedStart;\r\n        mapping(address => bool) hasApprovedReward;\r\n        bool exist;\r\n    }\r\n\r\n    event NewTaskCreated(uint256 taskNumber, string title, uint256 reward);\r\n    event TaskApproved(uint256 taskNumber, string title, uint256 reward);\r\n    event TaskTaken(uint256 taskNumber, string title, address doer);\r\n    event TaskCompleted(uint256 taskNumber, string title, address doer);\r\n    event Received(address sender, uint256 amount);\r\n    event DoerGetPaid();\r\n\r\n    string public name;\r\n\r\n    address private creator;\r\n    uint private minimalContribution;\r\n    uint256 private numberOfTasks = 0;\r\n    uint256 private numberOfParticipants = 1;\r\n\r\n    uint256 private waitingTasksCount = 0;\r\n    uint256 private onTheWayTasksCount = 0;\r\n    uint256 private doingTasksCount = 0;\r\n    uint256 private completedTasksCount = 0;\r\n\r\n    mapping(address => bool) public participants;\r\n    mapping(uint256 => Task) public tasks;\r\n\r\n    modifier participantOnly() {\r\n        require(participants[msg.sender], \"You are not a participants of this project.\");\r\n        \r\n        _;\r\n    }\r\n\r\n    modifier creatorOnly() {\r\n        require(msg.sender == creator, \"Only creator can perform this action.\");\r\n\r\n        _;\r\n    }\r\n\r\n    modifier verifyTaskExist(uint256 taskNumber) {\r\n        require(tasks[taskNumber].exist, \"The asking task doesn't exist.\");\r\n\r\n        _;\r\n    }\r\n\r\n    modifier voteOnce(uint256 taskNumber, bool isStartStage) {\r\n        Task storage task = tasks[taskNumber];\r\n\r\n        if (isStartStage)\r\n            require(!task.hasApprovedStart[msg.sender], \"User already approve this task.\");\r\n        else \r\n            require(!task.hasApprovedReward[msg.sender], \"User already approve this task.\");\r\n\r\n        _;\r\n    }\r\n\r\n    constructor(address _creator, string memory _name, uint _minimalContribution) {\r\n        creator = _creator;\r\n        name = _name;\r\n        minimalContribution = _minimalContribution;\r\n        participants[_creator] = true;\r\n    }\r\n\r\n    receive() external payable {\r\n        emit Received(msg.sender, msg.value);\r\n    }\r\n\r\n    function joinProject() public payable {\r\n        require(msg.sender != creator, \"Creator can't join the project.\");\r\n        require(msg.value >= minimalContribution, \"Your contribution is to low to participate to this project.\");\r\n\r\n        participants[msg.sender] = true;\r\n        numberOfParticipants++;\r\n    }\r\n\r\n    function createTask(string calldata title, string calldata description, uint256 reward) public participantOnly {\r\n        require(bytes(title).length <= 32, \"Title too long. (32 char max)\");\r\n        require(address(this).balance >= reward, \"Not enough balance to create this task.\");\r\n        require(reward != 0, \"Reward can't be 0.\");\r\n\r\n        Task storage t = tasks[numberOfTasks];\r\n        t.number = numberOfTasks++;\r\n        t.title = title;\r\n        t.description = description;\r\n        t.reward = reward;\r\n        t.startApprovalCount = t.rewardApprovalCount = 0;\r\n        t.status = TaskStatus.WaitingApproval;\r\n        t.exist = true;\r\n\r\n        emit NewTaskCreated(t.number, t.title, t.reward);\r\n    }\r\n\r\n    function approveTaskStart(uint256 taskNumber) public participantOnly verifyTaskExist(taskNumber)  voteOnce(taskNumber, true) {\r\n        Task storage task = tasks[taskNumber];\r\n        task.startApprovalCount++;\r\n        task.hasApprovedStart[msg.sender] = true;\r\n\r\n        if (task.startApprovalCount > numberOfParticipants / 2) {\r\n            task.status = TaskStatus.OnTheWay;\r\n            \r\n            emit TaskApproved(task.number, task.title, task.reward);\r\n        }\r\n    }\r\n\r\n    function approveTaskCompleted(uint256 taskNumber) public participantOnly verifyTaskExist(taskNumber)  voteOnce(taskNumber, false) nonReentrant {\r\n        Task storage task = tasks[taskNumber];\r\n\r\n        require(task.status == TaskStatus.Doing, \"Task must be in Doing status to be completed.\");\r\n        require(task.doer != address(0), \"No doer assigned to this task.\");\r\n        require(address(this).balance >= task.reward, \"Insufficient contract balance to pay reward.\");\r\n\r\n\r\n        task.rewardApprovalCount++;\r\n        task.hasApprovedReward[msg.sender] = true;\r\n\r\n        if (task.rewardApprovalCount > numberOfParticipants / 2) {\r\n            task.status = TaskStatus.Completed;\r\n            uint256 rewardAmount = task.reward;\r\n            task.reward = 0;\r\n\r\n            emit TaskCompleted(task.number, task.title, task.doer);\r\n\r\n            (bool success, ) = task.doer.call{value: rewardAmount}(\"\");\r\n            require(success, \"Reward transfer failed.\");\r\n\r\n            emit DoerGetPaid();\r\n        }\r\n    }\r\n\r\n    function doerTakeTask(uint256 taskNumber) public verifyTaskExist(taskNumber) {\r\n        Task storage task = tasks[taskNumber];\r\n\r\n        require(task.status == TaskStatus.OnTheWay, \"To be taken a task required OnTheWay status\");\r\n        require(task.doer == address(0), \"Task already has a doer assigned.\");\r\n\r\n        task.doer = payable(msg.sender);\r\n        task.status = TaskStatus.Doing;\r\n\r\n        emit TaskTaken(task.number, task.title, task.doer);\r\n    }\r\n    \r\n    function getProjectsMetrics() external view returns (\r\n        string memory projectName,\r\n        uint256 totalTasks,\r\n        uint256 totalParticipants,\r\n        uint256 contractBalance,\r\n        address projectCreator) {\r\n            \r\n        return (name, numberOfTasks, numberOfParticipants, address(this).balance, creator);\r\n    }\r\n\r\n    function isParticipant(address user) external view returns (bool) {\r\n        return participants[user] || user == creator;\r\n    }\r\n\r\n    function getActiveTasksCount() external view returns (uint256 waiting, uint256 onTheWay, uint256 doing, uint256 completed) {\r\n        for (uint256 i = 0; i < numberOfTasks; i++) {\r\n            if (tasks[i].exist) {\r\n                if (tasks[i].status == TaskStatus.WaitingApproval) waiting++;\r\n                else if (tasks[i].status == TaskStatus.OnTheWay) onTheWay++;\r\n                else if (tasks[i].status == TaskStatus.Doing) doing++;\r\n                else if (tasks[i].status == TaskStatus.Completed) completed++;\r\n            }\r\n        }\r\n    }\r\n\r\n    function getTaskDetails(uint256 taskNumber) external view verifyTaskExist(taskNumber) returns (\r\n        string memory title,\r\n        string memory description,\r\n        uint256 reward,\r\n        address doer,\r\n        TaskStatus status,\r\n        uint256 startApprovals,\r\n        uint256 rewardApprovals,\r\n        bool needsMoreApprovals\r\n    ) {\r\n        Task storage task = tasks[taskNumber];\r\n        bool needsApproval = (task.status == TaskStatus.WaitingApproval && task.startApprovalCount <= numberOfParticipants / 2) ||\r\n                            (task.status == TaskStatus.Doing && task.rewardApprovalCount <= numberOfParticipants / 2);\r\n        \r\n        return (\r\n            task.title,\r\n            task.description,\r\n            task.reward,\r\n            task.doer,\r\n            task.status,\r\n            task.startApprovalCount,\r\n            task.rewardApprovalCount,\r\n            needsApproval\r\n        );\r\n    }\r\n\r\n    function _updateTaskCounter(TaskStatus oldStatus, TaskStatus newStatus) private {\r\n        if (oldStatus == TaskStatus.WaitingApproval) waitingTasksCount--;\r\n        else if (oldStatus == TaskStatus.OnTheWay) onTheWayTasksCount--;\r\n        else if (oldStatus == TaskStatus.Doing) doingTasksCount--;\r\n        else if (oldStatus == TaskStatus.Completed) completedTasksCount--;\r\n\r\n        if (newStatus == TaskStatus.WaitingApproval) waitingTasksCount++;\r\n        else if (newStatus == TaskStatus.OnTheWay) onTheWayTasksCount++;\r\n        else if (newStatus == TaskStatus.Doing) doingTasksCount++;\r\n        else if (newStatus == TaskStatus.Completed) completedTasksCount++;\r\n    }\r\n}",
  "sourcePath": "C:\\Users\\julie\\projects\\web3-funding\\ethereum\\contracts\\Project.sol",
  "compiler": {
    "name": "solc",
    "version": "0.8.30+commit.73712a01.Emscripten.clang"
  },
  "schemaVersion": "3.4.16",
  "updatedAt": "2025-09-08T09:25:01.398Z",
  "devdoc": {
    "kind": "dev",
    "methods": {},
    "version": 1
  },
  "userdoc": {
    "kind": "user",
    "methods": {},
    "version": 1
  }
}